S010000050726F796563746F2E73726563BF
S11300000C9434000C9451000C9451000C94510045
S11300100C9451000C94360A0C9451000C94510029
S11300200C9451000C94530A0C9451000C945100FC
S11300300C9451000C9472040C9451000C945100D3
S11300400C9451000C9451000C9451000C945100E8
S11300500C9451000C9451000C9451000C945100D8
S11300600C9451000C94510011241FBECFEFD8E022
S1130070DEBFCDBF11E0A0E0B1E0E8E7F5E202C0E9
S113008005900D92AC33B107D9F721E0ACE3B1E0B0
S113009001C01D92A237B207E1F70E94EF030C944E
S11300A0BA120C9400008F929F92AF92BF92CF929B
S11300B0DF92EF92FF920F931F93CF93DF93CDB70D
S11300C0DEB7C055D1090FB6F894DEBF0FBECDBF61
S11300D09AB121E030E0082E02C0220F331F0A94A7
S11300E0E2F7922B9AB9EBB1922F9095E923EBB9F1
S11300F0AFE1BEE41197F1F700C00000EAB19E231E
S11301009AB9E9B1F0E0082E02C0F595E7950A9492
S1130110E2F7E0FD04C0DBC0119719F4EEC0A3E3DD
S1130120B0E0E5E0EA95F1F70000E9B1F0E0E223A0
S1130130F323EF2B89F7CBC0119719F4DEC0A5E6A2
S1130140B0E0F5E0FA95F1F70000E9B1F0E0E22360
S1130150F323EF2B89F3C6C0E9B1F0E04F0102C0ED
S1130160959487948A95E2F780FC04C048C031973F
S113017019F4C3C0E5E6F0E085E08A95F1F70000E4
S113018089B190E082239323892B89F738C091E0C9
S1130190E91AF10831F4B1C00F2EF5E6EF2EF12C77
S11301A0F02D85E08A95F1F7000089B190E0822373
S11301B09323892B61F316BC89B190E082239323A6
S11301C0892B31F414C091E0E91AF10831F495C097
S11301D00F2EF5E6EF2EF12CF02D85E08A95F1F740
S11301E0000089B190E082239323892B61F786B5BF
S11301F090E08D939D930A171B0739F40EC0FE01FE
S113020031968E010F5A1F4FDF0189B190E082238E
S11302109323892B09F4C0CFCECF8AB1822B8AB91C
S11302208BB1282B2BB9A0E0B0E0A12CB12C80E03D
S113023090E06894EE24E5F8F12C01E010E0689475
S1130240CC24C4F8D12C803191058CF420813181E7
S113025025363105FCF09601281B390B480102C0F4
S1130260880C991C2A95E2F7A80CB91C13C080329B
S1130270910584F420813181253631055CF09701A4
S1130280281B390B480102C0880C991C2A95E2F7F7
S1130290A80DB91D0196329688329105A1F6FB018D
S11302A08081918196958795B695A7958A0F9B1F16
S11302B091838083DA018D919C911197969587950E
S11302C0B694A7948A0D9B1D8D939C9316C0E9B197
S11302D0F0E0082E02C0F595E7950A94E2F7E0FFF6
S11302E02ECF3ACFE9B1F0E04F0102C09594879444
S11302F08A95E2F780FC3ECF82CFC05BDF4F0FB61A
S1130300F894DEBF0FBECDBFDF91CF911F910F9147
S1130310FF90EF90DF90CF90BF90AF909F908F9021
S11303200895EFE9FFE03197F1F700C0000098B1BC
S1130330987F98B995B1907C282F2F73920F95B917
S11303409BB19F73807C890F8BB9429A8FE99FE0A0
S11303500197F1F700C000004298089587B18760C3
S113036087B984B18F6384B98AB1806C8AB981E01A
S113037090E00E94910182E090E00E94910186E069
S113038090E00E94910188E390E00E9491018CE04A
S113039090E00E949101089580589F4F0E9491011E
S11303A0089598B1956098B9419895B1907C282F9B
S11303B02F73920F95B99BB19F73807C890F8BB972
S11303C08FE99FE00197F1F700C00000429808957B
S11303D00F931F93CF93DF93EC018B0141305105B1
S11303E021F481E090E00E949101C8010E94CC01B7
S11303F08881882331F021960E94D101899181114D
S1130400FBCFDF91CF911F910F91089584E98093E1
S1130410BC00ECEBF0E0808184FFFDCF0895809177
S1130420BC00882324F40895019729F4089585EFE6
S113043091E0ECEBF0E0A9EFB0E01197F1F700C028
S113044000002081222384F708958CE58093B8006E
S1130450E9EBF0E080818C7F80838FEF8093BB0099
S113046084E08093BC000895DF92EF92FF920F9393
S11304701F93CF93DF93D82E062FCCEBD0E084EAE2
S113048088830E940F020F2EFBEBEF2EF12CF02D30
S113049080EDF701808314E818830E940F02F701AE
S11304A0D08218830E940F02F701008318830E94F0
S11304B00F020E9406021882DF91CF911F910F91C3
S11304C0FF90EF90DF9008959F92AF92BF92CF92EA
S11304D0DF92EF92FF920F931F93CF93DF93982EA7
S11304E08B01EA010F2EFCEBEF2EF12CF02D0F2ED9
S11304F0F4EACF2EF02DF701C0820E940F020F2ED6
S1130500FBEBAF2EB12CF02D80EDF50180830F2E87
S1130510F4E8DF2EF02DF701D0820E940F02F501DE
S11305209082F701D0820E940F02F701C0820E94DC
S11305300F0281EDF5018083F701D0820E940F0242
S1130540C8010197181619061CF501501048000F30
S1130550111F0C0F1D1F0F2EFCEBCF2ED12CF02DD5
S11305600F2EF4ECBF2EF02D0F2EFBEBEF2EF12C03
S1130570F02DF601B0820E940F02F701808190E015
S1130580899399930E940F02C017D10791F701C074
S11305908E01CCEBD0E084E888830E940F02809126
S11305A0BB0090E0F801918380830E940F020E94B7
S11305B006021882DF91CF911F910F91FF90EF9067
S11305C0DF90CF90BF90AF909F9008954F925F922D
S11305D06F927F928F929F92AF92BF92CF92DF924F
S11305E0EF92FF920F931F93CF93DF936C015B0104
S11305F04A013901CCEBD0E00F2EF4EA4F2EF02D56
S113060048820E940F020F2EFBEBEF2EF12CF02DEF
S113061080EDF70180830F2EF4E85F2EF02D5882D1
S11306200E940F0281E0F701808358820E940F022A
S113063048820E940F0281EDF701808358820E9454
S11306400F020F2EF4EC4F2EF02D48820E940F0261
S1130650F7012081822F807F90E09595879595956D
S113066087959595879595958795AC01440F551F6A
S1130670880F991F880F991F880F991F840F951F42
S11306802F70820F911DF501918380830E940F02C8
S113069048820E940F02F7012081822F807390E02C
S11306A0959587959595879595958795959587952E
S11306B0AC01440F551F880F991F880F991F880F8D
S11306C0991F840F951F2F70820F911DF60191833E
S11306D080830E940F0248820E940F02F7018081EA
S11306E00E940F0248820E940F02F7012081822F8C
S11306F0807390E0959587959595879595958795C1
S113070095958795AC01440F551F880F991F880F45
S1130710991F880F991F840F951F2F70820F911DA9
S1130720F401918380830E940F0248820E940F0289
S1130730F7012081822F807390E095958795959598
S113074087959595879595958795AC01440F551F89
S1130750880F991F880F991F880F991F840F951F61
S11307602F70820F911DF301918380830E940F02E9
S113077058820E940F02F7012081822F807F90E02F
S1130780959587959595879595958795959587954D
S1130790AC01440F551F880F991F880F991F880FAC
S11307A0991F840F951F2F70820F911DF80191835B
S11307B080830E940F020E9406021882DF91CF916B
S11307C01F910F91FF90EF90DF90CF90BF90AF906B
S11307D09F908F907F906F905F904F9008952FEF30
S11307E087EA91E6215080409040E1F700C0000084
S11307F00E9425020E94EC0F0E94FC0F0E9403102D
S11308000E94AE018AB18C6D8AB98BB18C6D8BB9A3
S113081055985D9A80E280936D0084E0809368002F
S11308204AE651E068E571E082E090E00E945300FE
S11308308091580190915901880F991F9093590103
S11308408093580180916A0190916B01880F991FE0
S113085090936B0180936A014CE551E068E671E086
S113086083E090E00E9453008091680190916901B7
S1130870880F991F909369018093680180915C01AE
S113088090915D01880F991F90935D0180935C01A5
S1130890789410925701109256010CE611E020E76B
S11308A031E042E551E06CE371E084E591E00E94BF
S11308B0E60241E050E060E070E080E091E00E94F8
S11308C0E80140E050E068E270E086E091E00E94D8
S11308D0E80140E050E06DE070E08CE091E00E94BF
S11308E0E801FFCF1F920F920FB60F9211248F923F
S11308F09F92AF92BF92CF92DF92EF92FF920F93AB
S11309001F932F933F934F935F936F937F938F9393
S11309109F93AF93BF93CF93DF93EF93FF934AE6F5
S113092051E068E571E082E090E00E9453004CE5FC
S113093051E068E671E083E090E00E9453000CE629
S113094011E020E731E042E551E06CE371E084E539
S113095091E00E94E60242E451E068E070E088E041
S113096090E00E9464026091420170914301809181
S11309705201909153016817790761F42091440161
S113098030914501809170019091710128173907C8
S113099009F460C08CE090E00E943402C2E4D1E02B
S11309A06A817B818DE090E00E9434026C817D81BC
S11309B08EE090E00E9434026E817F818FE090E0AF
S11309C00E94340288819981998788878A819B81D2
S11309D09B878A878C819D819D878C878E819F814F
S11309E09F878E87409152015091530159834883C8
S11309F080917001909171019B838A8320915801A9
S1130A0030915901ADECBCEC0E9476129695879515
S1130A1096958795969587959D838C839F838E83E2
S1130A20BA0188E090E00E943402609170017091F4
S1130A30710189E090E00E9434026C817D818AE03A
S1130A4090E00E9434026E817F818BE090E00E94EE
S1130A5034023CC02091580130915901ADECBCECFA
S1130A600E94761296958795969587959695879583
S1130A7020914601309147018217930748F49093DF
S1130A80470180934601BC018AE090E00E94340251
S1130A902091580130915901ADECBCEC0E947612C2
S1130AA09695879596958795969587952091480173
S1130AB0309149012817390748F4909349018093EC
S1130AC04801BC018BE090E00E9434028091560101
S1130AD0909157018130910509F04EC140E050E0FA
S1130AE065E070E080E191E00E94E8012091580106
S1130AF030915901ADECBCEC0E9476124AE06EE5EF
S1130B0071E09695879596958795969587950E9419
S1130B1085122091580130915901ADECBCEC0E9432
S1130B2076128035910588F440E050E066E070E08C
S1130B3082E191E00E94E80140E050E067E070E06B
S1130B408EE591E00E94E80108C040E050E066E0D4
S1130B5070E08EE591E00E94E80140E050E068E03A
S1130B6070E084E191E00E94E801E0915801F09185
S1130B7059019F01ADECBCEC0E94761296958795C5
S1130B8096958795969587959C01220F331F880F1C
S1130B90991F880F991F880F991F820F931F4AE08E
S1130BA06EE571E09F01281B390BC9010E94851273
S1130BB040E050E069E070E08EE591E00E94E801D9
S1130BC020916A0130916B01ADECBCEC0E9476126D
S1130BD04AE06EE571E0969587959695879596958A
S1130BE087950E94851220916A0130916B01ADECCA
S1130BF0BCEC0E9476128035910588F440E050E008
S1130C006CE270E082E191E00E94E80140E050E093
S1130C106DE270E08EE591E00E94E80108C040E0DA
S1130C2050E06CE270E08EE591E00E94E80140E063
S1130C3050E06EE270E084E191E00E94E801E0910E
S1130C406A01F0916B019F01ADECBCEC0E9476123D
S1130C509695879596958795969587959C01220FED
S1130C60331F880F991F880F991F880F991F820FB0
S1130C70931F4AE06EE571E09F01281B390BC901FF
S1130C800E94851240E050E06FE270E08EE591E052
S1130C900E94E80140E050E060E370E086E191E00A
S1130CA00E94E801C0906A01D0906B01E12CF12C04
S1130CB0C701B6010E9420110E9421120E94211234
S1130CC00E9421126B017C0120915801309159013D
S1130CD0ADECBCEC0E947612969587959695879517
S1130CE096958795BC0162597F4F80E090E00E9401
S1130CF020114B015C0126E934EC47E150E4C701C3
S1130D00B6010E9478109B01AC01C501B4010E9498
S1130D10AE1120E030E04CED52E40E940B100E9432
S1130D20EA10DC01CB0190936F0180936E014AE0DD
S1130D306EE571E00E94851280916E0190916F01C1
S1130D400A9788F440E050E066E370E082E191E0C5
S1130D500E94E80140E050E067E370E08EE591E036
S1130D600E94E80166C340E050E066E370E08EE56F
S1130D7091E00E94E8015DC38230910509F04EC103
S1130D8040E050E065E070E080E191E00E94E8011D
S1130D902091680130916901ADECBCEC0E9476129F
S1130DA04AE06EE571E096958795969587959695B8
S1130DB087950E9485122091680130916901ADECFC
S1130DC0BCEC0E9476128035910588F440E050E036
S1130DD066E070E082E191E00E94E80140E050E0CA
S1130DE067E070E08EE591E00E94E80108C040E011
S1130DF050E066E070E08EE591E00E94E80140E09A
S1130E0050E068E070E084E191E00E94E801E09144
S1130E106801F09169019F01ADECBCEC0E9476126F
S1130E209695879596958795969587959C01220F1B
S1130E30331F880F991F880F991F880F991F820FDE
S1130E40931F4AE06EE571E09F01281B390BC9012D
S1130E500E94851240E050E069E070E08EE591E088
S1130E600E94E80120915C0130915D01ADECBCEC85
S1130E700E9476124AE06EE571E096958795969504
S1130E808795969587950E94851220916A013091E5
S1130E906B01ADECBCEC0E9476128035910588F4B0
S1130EA040E050E06CE270E082E191E00E94E801F1
S1130EB040E050E06DE270E08EE591E00E94E801D0
S1130EC008C040E050E06CE270E08EE591E00E94E2
S1130ED0E80140E050E06EE270E084E191E00E94BD
S1130EE0E801E0915C01F0915D019F01ADECBCEC87
S1130EF00E947612969587959695879596958795EF
S1130F009C01220F331F880F991F880F991F880F88
S1130F10991F820F931F4AE06EE571E09F01281B21
S1130F20390BC9010E94851240E050E06FE270E085
S1130F308EE591E00E94E80140E050E060E370E05B
S1130F4086E191E00E94E801C0905C01D0905D01CF
S1130F50E12CF12CC701B6010E9420110E9421123C
S1130F600E9421120E9421126B017C0120916801D0
S1130F7030916901ADECBCEC0E9476129695879590
S1130F809695879596958795BC0162597F4F80E029
S1130F9090E00E9420114B015C0126E934EC47E10A
S1130FA050E4C701B6010E9478109B01AC01C50151
S1130FB0B4010E94AE1120E030E04CED52E40E94F6
S1130FC00B100E94EA10DC01CB0190935B0180932B
S1130FD05A014AE06EE571E00E94851280915A013F
S1130FE090915B010A9788F440E050E066E370E07A
S1130FF082E191E00E94E80140E050E067E370E0A4
S11310008EE591E00E94E80114C240E050E066E3FE
S113101070E08EE591E00E94E8010BC283309105F7
S113102009F06BC08091460190914701992344F0E7
S113103040E050E065E070E080E191E00E94E8016A
S1131040C2E4D1E04AE06EE571E08C819D810E94AA
S113105085128C819D810996439788F440E050E085
S113106066E070E082E191E00E94E80140E050E037
S113107067E070E08EE591E00E94E80108C040E07E
S113108050E066E070E08EE591E00E94E801809116
S1131090480190914901992344F040E050E065E013
S11310A070E080E191E00E94E801C2E4D1E04AE00E
S11310B06EE571E08E819F810E9485128E819F81F1
S11310C00996439788F440E050E06EE270E082E1D4
S11310D091E00E94E80140E050E06FE270E08EE5AC
S11310E091E00E94E801A5C140E050E06EE270E0AA
S11310F08EE591E00E94E8019CC18430910509F0DD
S11311006BC080914E0190914F01992344F040E0CF
S113111050E065E070E080E191E00E94E801C2E403
S1131120D1E04AE06EE571E08C859D850E948512D0
S11311308C859D850996439788F440E050E066E0ED
S113114070E082E191E00E94E80140E050E067E055
S113115070E08EE591E00E94E80108C040E050E0B4
S113116066E070E08EE591E00E94E8018091500114
S113117090915101992344F040E050E065E070E023
S113118080E191E00E94E801C2E4D1E04AE06EE52A
S113119071E08E859F850E9485128E859F850996B4
S11311A0439788F440E050E06EE270E082E191E021
S11311B00E94E80140E050E06FE270E08EE591E0CB
S11311C00E94E80136C140E050E06EE270E08EE536
S11311D091E00E94E8012DC1892B09F02AC14AE05F
S11311E06EE571E080915401909155010E94851241
S11311F080915401909155010A978CF440E050E09D
S11312006DE270E082E191E00E94E80140E050E08C
S11312106EE270E08EE591E00E94E80108C040E0D3
S113122050E06DE270E08EE591E00E94E80140E05C
S113123050E06FE270E08AE091E00E94E8014AE049
S11312406EE571E080913C0190913D010E94851210
S113125080913C0190913D010A978CF440E050E06C
S113126060E370E082E191E00E94E80140E050E038
S113127061E370E08EE591E00E94E80108C040E07F
S113128050E060E370E08EE591E00E94E8014AE0FE
S11312906EE571E080915201909153010E94851294
S11312A080915201909153010A978CF440E050E0F0
S11312B063E370E082E191E00E94E80140E050E0E5
S11312C064E370E08EE591E00E94E80108C040E02C
S11312D050E063E370E08EE591E00E94E80140E0B5
S11312E050E065E370E088E191E00E94E8014AE0A3
S11312F06EE571E080917001909171010E948512F8
S113130080917001909171010A978CF440E050E053
S113131066E370E082E191E00E94E80140E050E081
S113132067E370E08EE591E00E94E80108C040E0C8
S113133050E066E370E08EE591E00E94E80140E051
S113134050E065E070E080E191E00E94E8012091C6
S1131350680130916901ADECBCEC0E9476124AE060
S11313606EE571E096958795969587959695879500
S11313700E9485122091680130916901ADECBCECAA
S11313800E9476128035910588F440E050E066E0D2
S113139070E082E191E00E94E80140E050E067E003
S11313A070E08EE591E00E94E80108C040E050E062
S11313B066E070E08EE591E00E94E80140E050E0D4
S11313C066E070E08EE591E00E94E80140E050E0C4
S11313D068E070E084E191E00E94E801E091680136
S11313E0F09169019F01ADECBCEC0E9476129695D8
S11313F0879596958795969587959C01220F331F1F
S1131400880F991F880F991F880F991F820F931FA8
S11314104AE06EE571E09F01281B390BC9010E9467
S1131420851240E050E069E070E08EE591E00E94B2
S1131430E801FF91EF91DF91CF91BF91AF919F911F
S11314408F917F916F915F914F913F912F911F9158
S11314500F91FF90EF90DF90CF90BF90AF909F904F
S11314608F900F900FBE0F901F9018951F920F92A0
S11314700FB60F9211248F934D9909C087E0809382
S1131480B10081E0809370001092B20006C0109207
S1131490B2001092B100109270008F910F900FBEA5
S11314A00F901F9018951F920F920FB60F92112450
S11314B02F933F934F935F936F937F938F939F9358
S11314C0AF93BF93CF93DF93EF93FF931092B10049
S11314D080915601909157018430910554F40196FE
S11314E090935701809356018230910509F033C1DE
S11314F005C0109257011092560117C441E050E004
S113150060E070E080E091E00E94E80140E050E09B
S113151068E270E08AE191E00E94E80140E050E076
S113152062E370E08FE191E00E94E80140E050E066
S11315306DE070E08CE091E00E94E80140E050E052
S113154065E070E080E191E00E94E801209168018B
S113155030916901ADECBCEC0E9476124AE06EE574
S113156071E09695879596958795969587950E94AF
S113157085122091680130916901ADECBCEC0E94A8
S113158076128035910588F440E050E066E070E022
S113159082E191E00E94E80140E050E067E070E001
S11315A08EE591E00E94E80108C040E050E066E06A
S11315B070E08EE591E00E94E80140E050E068E0D0
S11315C070E084E191E00E94E801E0916801F0910B
S11315D069019F01ADECBCEC0E947612969587954B
S11315E096958795969587959C01220F331F880FB2
S11315F0991F880F991F880F991F820F931F4AE024
S11316006EE571E09F01281B390BC9010E94851208
S113161040E050E069E070E08EE591E00E94E8016E
S113162020915C0130915D01ADECBCEC0E9476121E
S11316304AE06EE571E0969587959695879596951F
S113164087950E94851220915C0130915D01ADEC7B
S1131650BCEC0E9476128035910588F440E050E09D
S11316606CE270E082E191E00E94E80140E050E029
S11316706DE270E08EE591E00E94E80108C040E070
S113168050E06CE270E08EE591E00E94E80140E0F9
S113169050E06EE270E084E191E00E94E801E091A4
S11316A05C01F0915D019F01ADECBCEC0E947612EF
S11316B09695879596958795969587959C01220F83
S11316C0331F880F991F880F991F880F991F820F46
S11316D0931F4AE06EE571E09F01281B390BC90195
S11316E00E94851240E050E06FE270E08EE591E0E8
S11316F00E94E80140E050E060E370E086E191E0A0
S11317000E94E8014AE06EE571E080915A019091EF
S11317105B010E94851280915A0190915B010A97A6
S113172088F440E050E066E370E082E191E00E94DA
S1131730E80140E050E067E370E08EE591E00E944C
S1131740E80135C440E050E066E370E08EE591E0E6
S11317500E94E8012CC48130910509F02DC141E0BB
S113176050E060E070E080E091E00E94E80140E039
S113177050E068E270E08AE191E00E94E80140E014
S113178050E062E370E08FE191E00E94E80140E004
S113179050E06DE070E083E291E00E94E80140E0F7
S11317A050E065E070E080E191E00E94E801209162
S11317B0580130915901ADECBCEC0E9476124AE01C
S11317C06EE571E09695879596958795969587959C
S11317D00E9485122091580130915901ADECBCEC66
S11317E00E9476128035910588F440E050E066E06E
S11317F070E082E191E00E94E80140E050E067E09F
S113180070E08EE591E00E94E80108C040E050E0FD
S113181066E070E08EE591E00E94E80140E050E06F
S113182068E070E084E191E00E94E801E0915801F1
S1131830F09159019F01ADECBCEC0E947612969593
S1131840879596958795969587959C01220F331FCA
S1131850880F991F880F991F880F991F820F931F54
S11318604AE06EE571E09F01281B390BC9010E9413
S1131870851240E050E069E070E08EE591E00E945E
S1131880E80120916A0130916B01ADECBCEC0E943F
S113189076124AE06EE571E0969587959695879560
S11318A0969587950E94851220916A0130916B016B
S11318B0ADECBCEC0E9476128035910588F440E0D2
S11318C050E06CE270E082E191E00E94E80140E0C7
S11318D050E06DE270E08EE591E00E94E80108C0FE
S11318E040E050E06CE270E08EE591E00E94E80197
S11318F040E050E06EE270E084E191E00E94E80193
S1131900E0916A01F0916B019F01ADECBCEC0E9487
S113191076129695879596958795969587959C01C9
S1131920220F331F880F991F880F991F880F991F43
S1131930820F931F4AE06EE571E09F01281B390B6B
S1131940C9010E94851240E050E06FE270E08EE52C
S113195091E00E94E80140E050E060E370E086E13D
S113196091E00E94E8014AE06EE571E080916E0129
S113197090916F010E94851280916E0190916F0188
S11319800A9788F440E050E066E370E082E191E079
S11319900E94E80140E050E067E370E08EE591E0EA
S11319A00E94E80104C340E050E066E370E08EE585
S11319B091E00E94E801FBC28330910509F0D7C091
S11319C041E050E060E070E087E291E00E94E801CD
S11319D040E050E068E270E08DE291E00E94E801AE
S11319E040E050E06DE070E083E391E00E94E801A4
S11319F0C2E4D1E04AE06EE571E0888199810E94F9
S1131A008512888199810A978CF440E050E063E361
S1131A1070E082E191E00E94E80140E050E064E37C
S1131A2070E08EE591E00E94E80108C040E050E0DB
S1131A3063E370E08EE591E00E94E80140E050E04D
S1131A4065E370E088E191E00E94E801C2E4D1E03E
S1131A504AE06EE571E08A819B810E9485128A8149
S1131A609B810A978CF440E050E066E370E082E1E9
S1131A7091E00E94E80140E050E067E370E08EE509
S1131A8091E00E94E80108C040E050E066E370E0A5
S1131A908EE591E00E94E801809146019091470112
S1131AA0992344F040E050E065E070E080E191E08B
S1131AB00E94E801C2E4D1E04AE06EE571E08C8165
S1131AC09D810E9485128C819D810996439788F49B
S1131AD040E050E066E070E082E191E00E94E801BD
S1131AE040E050E067E070E08EE591E00E94E8019C
S1131AF008C040E050E066E070E08EE591E00E94AE
S1131B00E8018091480190914901992344F040E013
S1131B1050E065E070E080E191E00E94E801C2E4F9
S1131B20D1E04AE06EE571E08E819F810E948512CA
S1131B308E819F810996439788F440E050E06EE2DD
S1131B4070E082E191E00E94E80140E050E06FE241
S1131B5070E08EE591E00E94E80129C240E050E087
S1131B606EE270E08EE591E00E94E80120C28430CC
S1131B70910509F0D7C041E050E060E070E087E2F1
S1131B8091E00E94E80140E050E068E270E08DE2FC
S1131B9091E00E94E80140E050E06CE070E087E3EF
S1131BA091E00E94E801C2E4D1E04AE06EE571E010
S1131BB0888599850E948512888599850A978CF471
S1131BC040E050E063E370E082E191E00E94E801CC
S1131BD040E050E064E370E08EE591E00E94E801AB
S1131BE008C040E050E063E370E08EE591E00E94BD
S1131BF0E80140E050E065E370E088E191E00E9494
S1131C00E801C2E4D1E04AE06EE571E08A859B8593
S1131C100E9485128A859B850A978CF440E050E0E7
S1131C2066E370E082E191E00E94E80140E050E068
S1131C3067E370E08EE591E00E94E80108C040E0AF
S1131C4050E066E370E08EE591E00E94E801809147
S1131C504E0190914F01992344F040E050E065E03B
S1131C6070E080E191E00E94E801C2E4D1E04AE042
S1131C706EE571E08C859D850E9485128C859D851D
S1131C800996439788F440E050E066E070E082E112
S1131C9091E00E94E80140E050E067E070E08EE5EA
S1131CA091E00E94E80108C040E050E066E070E086
S1131CB08EE591E00E94E8018091500190915101DC
S1131CC0992344F040E050E065E070E080E191E069
S1131CD00E94E801C2E4D1E04AE06EE571E08E853D
S1131CE09F850E9485128E859F850996439788F467
S1131CF040E050E06EE270E082E191E00E94E80191
S1131D0040E050E06FE270E08EE591E00E94E8016F
S1131D104EC140E050E06EE270E08EE591E00E943A
S1131D20E80145C1892B09F042C141E050E060E07F
S1131D3070E080E091E00E94E80140E050E068E259
S1131D4070E086E091E00E94E80140E050E06DE040
S1131D5070E08CE091E00E94E8014AE06EE571E0F9
S1131D6080915401909155010E94851280915401F3
S1131D70909155010A978CF440E050E06DE270E0D8
S1131D8082E191E00E94E80140E050E06EE270E000
S1131D908EE591E00E94E80108C040E050E06DE269
S1131DA070E08EE591E00E94E80140E050E06FE2CF
S1131DB070E08AE091E00E94E8014AE06EE571E09B
S1131DC080913C0190913D010E94851280913C01DB
S1131DD090913D010A978CF440E050E060E370E09C
S1131DE082E191E00E94E80140E050E061E370E0AC
S1131DF08EE591E00E94E80108C040E050E060E315
S1131E0070E08EE591E00E94E8014AE06EE571E041
S1131E1080915201909153010E9485128091520148
S1131E20909153010A978CF440E050E063E370E032
S1131E3082E191E00E94E80140E050E064E370E058
S1131E408EE591E00E94E80108C040E050E063E3C1
S1131E5070E08EE591E00E94E80140E050E065E327
S1131E6070E088E191E00E94E8014AE06EE571E0EB
S1131E7080917001909171010E948512809170018E
S1131E80909171010A978CF440E050E066E370E0B1
S1131E9082E191E00E94E80140E050E067E370E0F5
S1131EA08EE591E00E94E80108C040E050E066E35E
S1131EB070E08EE591E00E94E80140E050E065E0CA
S1131EC070E080E191E00E94E80120916801309186
S1131ED06901ADECBCEC0E9476124AE06EE571E05B
S1131EE09695879596958795969587950E948512E0
S1131EF02091680130916901ADECBCEC0E9476122E
S1131F008035910588F440E050E066E070E082E1BD
S1131F1091E00E94E80140E050E067E070E08EE567
S1131F2091E00E94E80108C040E050E066E070E003
S1131F308EE591E00E94E80140E050E066E070E048
S1131F408EE591E00E94E80140E050E068E070E036
S1131F5084E191E00E94E801E0916801F091690157
S1131F609F01ADECBCEC0E947612969587959695F0
S1131F708795969587959C01220F331F880F991F8B
S1131F80880F991F880F991F820F931F4AE06EE5EF
S1131F9071E09F01281B390BC9010E94851240E0A2
S1131FA050E069E070E08EE591E00E94E801109253
S1131FB07000FF91EF91DF91CF91BF91AF919F910D
S1131FC08F917F916F915F914F913F912F910F90DE
S1131FD00FBE0F901F90189583E0809380008DE1D1
S1131FE08093810081E080936F008FEF9FEF909347
S1131FF0890080938800089583E084BD82E085BDD4
S113200010926E00089583E08093B0001092B100A6
S11320101092700008955058BB27AA270E942310DD
S11320200C9474110E94661138F00E946D1120F016
S113203039F49F3F19F426F40C9463110EF4E095DF
S1132040E7FB0C945D11E92F0E94851158F3BA1730
S1132050620773078407950720F079F4A6F50C94BA
S1132060A7110EF4E0950B2EBA2FA02D0B01B90188
S113207090010C01CA01A0011124FF27591B99F0FA
S1132080593F50F4503E68F11A16F040A22F232F06
S1132090342F4427585FF3CF469537952795A79556
S11320A0F0405395C9F77EF41F16BA0B620B730BFD
S11320B0840BBAF09150A1F0FF0FBB1F661F771F6E
S11320C0881FC2F70EC0BA0F621F731F841F48F423
S11320D0879577956795B795F7959E3F08F0B0CFAC
S11320E09395880F08F09927EE0F97958795089593
S11320F00E948C100C9474110E946D1158F00E946F
S1132100661140F029F45F3F29F00C945D115111E0
S11321100C94A8110C9463110E94851168F39923FF
S1132120B1F3552391F3951B550BBB27AA276217CF
S11321307307840738F09F5F5F4F220F331F441FDC
S1132140AA1FA9F335D00E2E3AF0E0E832D0915010
S11321505040E695001CCAF72BD0FE2F29D0660FFD
S1132160771F881FBB1F261737074807AB07B0E840
S113217009F0BB0B802DBF01FF2793585F4F3AF046
S11321809E3F510578F00C945D110C94A8115F3FAB
S1132190E4F3983ED4F3869577956795B795F795CC
S11321A09F5FC9F7880F911D9695879597F90895B4
S11321B0E1E0660F771F881FBB1F62177307840750
S11321C0BA0720F0621B730B840BBA0BEE1F88F75F
S11321D0E09508950E94F1106894B1110C94A8112F
S11321E008950E948D1188F09F5798F0B92F992770
S11321F0B751B0F0E1F0660F771F881F991F1AF0EE
S1132200BA95C9F714C0B13091F00E94A711B1E09A
S113221008950C94A711672F782F8827B85F39F099
S1132220B93FCCF3869577956795B395D9F73EF486
S113223090958095709561957F4F8F4F9F4F08952E
S1132240E89409C097FB3EF490958095709561954C
S11322507F4F8F4F9F4F9923A9F0F92F96E9BB2702
S11322609395F695879577956795B795F111F8CF7E
S1132270FAF4BB0F11F460FF1BC06F5F7F4F8F4FE9
S11322809F4F16C0882311F096E911C0772321F0DF
S11322909EE8872F762F05C0662371F096E8862F77
S11322A070E060E02AF09A95660F771F881FDAF7CE
S11322B0880F9695879597F9089597F99F6780E811
S11322C070E060E008959FEF80EC089500240A9484
S11322D01616170618060906089500240A941216FD
S11322E01306140605060895092E0394000C11F430
S11322F0882352F0BB0F40F4BF2B11F460FF04C0DD
S11323006F5F7F4F8F4F9F4F089557FD9058440F35
S1132310551F59F05F3F71F04795880F97FB991F40
S113232061F09F3F79F087950895121613061406FD
S1132330551FF2CF4695F1DF08C01616170618068A
S1132340991FF1CF86957105610508940895E89465
S1132350BB2766277727CB0197F908950E94C111FF
S11323600C9474110E94661138F00E946D1120F0D3
S1132370952311F00C945D110C94631111240C94A9
S1132380A8110E94851170F3959FC1F3950F50E039
S1132390551F629FF001729FBB27F00DB11D639F13
S11323A0AA27F00DB11DAA1F649F6627B00DA11DB9
S11323B0661F829F2227B00DA11D621F739FB00D5F
S11323C0A11D621F839FA00D611D221F749F3327CF
S11323D0A00D611D231F849F600D211D822F762F68
S11323E06A2F11249F5750409AF0F1F088234AF045
S11323F0EE0FFF1FBB1F661F771F881F91505040B1
S1132400A9F79E3F510580F00C945D110C94A8111E
S11324105F3FE4F3983ED4F3869577956795B79537
S1132420F795E7959F5FC1F7FE2B880F911D969551
S1132430879597F9089519F416F40C9463110C9484
S113244061120E948D11B8F39923C9F3B6F39F5713
S1132450550B87FF0E946F120024A0E640EA90010A
S113246080585695979528F4805C660F771F881FCF
S113247020F026173707480730F4621B730B840BD0
S1132480202931294A2BA695179407942025312514
S11324904A2758F7660F771F881F20F0261737073B
S11324A0480730F4620B730B840B200D311D411D62
S11324B0A09581F7B901842F9158880F9695879537
S11324C008959F3F31F0915020F487957795679553
S11324D0B795880F911D9695879597F90895915012
S11324E05040660F771F881FD2F70895A29FB0014E
S11324F0B39FC001A39F700D811D1124911DB29F34
S1132500700D811D1124911D0895BB274A3031F4AB
S1132510992322F4BDE2909581959F4F0C949112DA
S1132520BB27FB015527AA27880F991FAA1FA417A9
S113253010F0A41B83955051B9F7A05DAA3308F09D
S1132540A95DA193009779F7B111B1931192CB01D1
S11325500C94AA12DC01FC01672F71917723E1F737
S1132560329704C07C916D9370836291AE17BF075C
S10B2570C8F30895F894FFCFAD
S113257854656D703A00486F72613A00494E5400D0
S1132588200030002E0025002F0048756D3A0044C5
S1132598773A0045585400546D696E3A00546D6199
S10F25A8783A00484F5900415945520050
S9030000FC
